{
  "contractName": "ForceSend",
  "abi": [
    {
      "inputs": [
        {
          "internalType": "address payable",
          "name": "victim",
          "type": "address"
        }
      ],
      "name": "go",
      "outputs": [],
      "stateMutability": "payable",
      "type": "function"
    }
  ],
  "bytecode": "0x6080604052348015600f57600080fd5b5060b18061001e6000396000f3fe608060405260043610601c5760003560e01c80633434e749146021575b600080fd5b606060048036036020811015603557600080fd5b81019080803573ffffffffffffffffffffffffffffffffffffffff1690602001909291905050506062565b005b8073ffffffffffffffffffffffffffffffffffffffff16fffea2646970667358221220842b958e8382d1a377d7e923e2cb854853a5eeecff65520ffdebaff3dd3e676064736f6c63430006020033",
  "source": "pragma solidity ^0.6.0;\r\n// For test suite\r\ncontract ForceSend {\r\n    function go(address payable victim) external payable {\r\n        selfdestruct(victim);\r\n    }\r\n}",
  "sourcePath": "C:/Users/Fabio Costa/GitHub_repos/fabio770/WalletRebalance/contracts/ForceSend.sol",
  "compiler": {
    "name": "solc",
    "version": "0.6.2+commit.bacdbe57.Emscripten.clang"
  },
  "schemaVersion": "3.3.0",
  "updatedAt": "2020-10-17T21:09:27.729Z",
  "devdoc": {
    "methods": {}
  },
  "userdoc": {
    "methods": {}
  }
}