{
  "contractName": "TokenFarm",
  "abi": [
    {
      "inputs": [
        {
          "internalType": "address",
          "name": "_dappToken",
          "type": "address"
        }
      ],
      "stateMutability": "nonpayable",
      "type": "constructor"
    },
    {
      "anonymous": false,
      "inputs": [
        {
          "indexed": true,
          "internalType": "bytes32",
          "name": "id",
          "type": "bytes32"
        }
      ],
      "name": "ChainlinkCancelled",
      "type": "event"
    },
    {
      "anonymous": false,
      "inputs": [
        {
          "indexed": true,
          "internalType": "bytes32",
          "name": "id",
          "type": "bytes32"
        }
      ],
      "name": "ChainlinkFulfilled",
      "type": "event"
    },
    {
      "anonymous": false,
      "inputs": [
        {
          "indexed": true,
          "internalType": "bytes32",
          "name": "id",
          "type": "bytes32"
        }
      ],
      "name": "ChainlinkRequested",
      "type": "event"
    },
    {
      "anonymous": false,
      "inputs": [
        {
          "indexed": true,
          "internalType": "address",
          "name": "previousOwner",
          "type": "address"
        },
        {
          "indexed": true,
          "internalType": "address",
          "name": "newOwner",
          "type": "address"
        }
      ],
      "name": "OwnershipTransferred",
      "type": "event"
    },
    {
      "inputs": [],
      "name": "dappToken",
      "outputs": [
        {
          "internalType": "address",
          "name": "",
          "type": "address"
        }
      ],
      "stateMutability": "view",
      "type": "function",
      "constant": true
    },
    {
      "inputs": [],
      "name": "name",
      "outputs": [
        {
          "internalType": "string",
          "name": "",
          "type": "string"
        }
      ],
      "stateMutability": "view",
      "type": "function",
      "constant": true
    },
    {
      "inputs": [],
      "name": "owner",
      "outputs": [
        {
          "internalType": "address",
          "name": "",
          "type": "address"
        }
      ],
      "stateMutability": "view",
      "type": "function",
      "constant": true
    },
    {
      "inputs": [],
      "name": "renounceOwnership",
      "outputs": [],
      "stateMutability": "nonpayable",
      "type": "function"
    },
    {
      "inputs": [
        {
          "internalType": "uint256",
          "name": "",
          "type": "uint256"
        }
      ],
      "name": "stakers",
      "outputs": [
        {
          "internalType": "address",
          "name": "",
          "type": "address"
        }
      ],
      "stateMutability": "view",
      "type": "function",
      "constant": true
    },
    {
      "inputs": [
        {
          "internalType": "address",
          "name": "",
          "type": "address"
        },
        {
          "internalType": "address",
          "name": "",
          "type": "address"
        }
      ],
      "name": "stakingBalance",
      "outputs": [
        {
          "internalType": "uint256",
          "name": "",
          "type": "uint256"
        }
      ],
      "stateMutability": "view",
      "type": "function",
      "constant": true
    },
    {
      "inputs": [
        {
          "internalType": "address",
          "name": "",
          "type": "address"
        }
      ],
      "name": "tokenPriceFeedMapping",
      "outputs": [
        {
          "internalType": "address",
          "name": "",
          "type": "address"
        }
      ],
      "stateMutability": "view",
      "type": "function",
      "constant": true
    },
    {
      "inputs": [
        {
          "internalType": "address",
          "name": "newOwner",
          "type": "address"
        }
      ],
      "name": "transferOwnership",
      "outputs": [],
      "stateMutability": "nonpayable",
      "type": "function"
    },
    {
      "inputs": [],
      "name": "uni",
      "outputs": [
        {
          "internalType": "address",
          "name": "",
          "type": "address"
        }
      ],
      "stateMutability": "view",
      "type": "function",
      "constant": true
    },
    {
      "inputs": [
        {
          "internalType": "address",
          "name": "",
          "type": "address"
        }
      ],
      "name": "uniqueTokensStaked",
      "outputs": [
        {
          "internalType": "uint256",
          "name": "",
          "type": "uint256"
        }
      ],
      "stateMutability": "view",
      "type": "function",
      "constant": true
    },
    {
      "inputs": [
        {
          "internalType": "address",
          "name": "token",
          "type": "address"
        }
      ],
      "name": "addAllowedTokens",
      "outputs": [],
      "stateMutability": "nonpayable",
      "type": "function"
    },
    {
      "inputs": [
        {
          "internalType": "address",
          "name": "token",
          "type": "address"
        },
        {
          "internalType": "address",
          "name": "priceFeed",
          "type": "address"
        }
      ],
      "name": "setPriceFeedContract",
      "outputs": [],
      "stateMutability": "nonpayable",
      "type": "function"
    },
    {
      "inputs": [
        {
          "internalType": "uint256",
          "name": "_amount",
          "type": "uint256"
        },
        {
          "internalType": "address",
          "name": "token",
          "type": "address"
        }
      ],
      "name": "stakeTokens",
      "outputs": [],
      "stateMutability": "nonpayable",
      "type": "function"
    },
    {
      "inputs": [
        {
          "internalType": "address",
          "name": "token",
          "type": "address"
        }
      ],
      "name": "unstakeTokens",
      "outputs": [],
      "stateMutability": "nonpayable",
      "type": "function"
    },
    {
      "inputs": [
        {
          "internalType": "address",
          "name": "user",
          "type": "address"
        }
      ],
      "name": "getUserTotalValue",
      "outputs": [
        {
          "internalType": "uint256",
          "name": "",
          "type": "uint256"
        }
      ],
      "stateMutability": "view",
      "type": "function",
      "constant": true
    },
    {
      "inputs": [
        {
          "internalType": "address",
          "name": "token",
          "type": "address"
        }
      ],
      "name": "tokenIsAllowed",
      "outputs": [
        {
          "internalType": "bool",
          "name": "",
          "type": "bool"
        }
      ],
      "stateMutability": "nonpayable",
      "type": "function"
    },
    {
      "inputs": [
        {
          "internalType": "address",
          "name": "user",
          "type": "address"
        },
        {
          "internalType": "address",
          "name": "token",
          "type": "address"
        }
      ],
      "name": "getUserStakingBalanceEthValue",
      "outputs": [
        {
          "internalType": "uint256",
          "name": "",
          "type": "uint256"
        }
      ],
      "stateMutability": "view",
      "type": "function",
      "constant": true
    },
    {
      "inputs": [],
      "name": "issueTokens",
      "outputs": [],
      "stateMutability": "nonpayable",
      "type": "function"
    },
    {
      "inputs": [
        {
          "internalType": "address",
          "name": "token",
          "type": "address"
        }
      ],
      "name": "getTokenEthPrice",
      "outputs": [
        {
          "internalType": "uint256",
          "name": "",
          "type": "uint256"
        }
      ],
      "stateMutability": "view",
      "type": "function",
      "constant": true
    }
  ],
  "bytecode": "0x608060405260016004556040518060400160405280600f81526020017f4461707020546f6b656e204661726d000000000000000000000000000000000081525060079080519060200190620000569291906200019c565b503480156200006457600080fd5b5060405162001e8f38038062001e8f833981810160405260208110156200008a57600080fd5b81019080805190602001909291905050506000620000ad6200019460201b60201c565b905080600660006101000a81548173ffffffffffffffffffffffffffffffffffffffff021916908373ffffffffffffffffffffffffffffffffffffffff1602179055508073ffffffffffffffffffffffffffffffffffffffff16600073ffffffffffffffffffffffffffffffffffffffff167f8be0079c531659141344cd1fd0a4f28419497f9722a3daafe3b4186f6b6457e060405160405180910390a35080600d60006101000a81548173ffffffffffffffffffffffffffffffffffffffff021916908373ffffffffffffffffffffffffffffffffffffffff160217905550506200024b565b600033905090565b828054600181600116156101000203166002900490600052602060002090601f016020900481019282601f10620001df57805160ff191683800117855562000210565b8280016001018555821562000210579182015b828111156200020f578251825591602001919060010190620001f2565b5b5090506200021f919062000223565b5090565b6200024891905b80821115620002445760008160009055506001016200022a565b5090565b90565b611c34806200025b6000396000f3fe608060405234801561001057600080fd5b50600436106101215760003560e01c8063877dd39d116100ad578063dd5b846711610071578063dd5b8467146105af578063df00018d1461060b578063edc9af9514610663578063f2fde38b146106ad578063fd5e6dd1146106f157610121565b8063877dd39d146103d95780638da5cb5b1461043d578063af3f5e2214610487578063b83e0234146104df578063cc81e0601461053757610121565b806329161a00116100f457806329161a00146102bf5780632d1ad8b8146103375780635eb186f81461037b57806360ab5852146103c5578063715018a6146103cf57610121565b806306fdde03146101265780630bea440d146101a9578063171e44ea146101f757806327927b3e1461023b575b600080fd5b61012e61075f565b6040518080602001828103825283818151815260200191508051906020019080838360005b8381101561016e578082015181840152602081019050610153565b50505050905090810190601f16801561019b5780820380516001836020036101000a031916815260200191505b509250505060405180910390f35b6101f5600480360360408110156101bf57600080fd5b8101908080359060200190929190803573ffffffffffffffffffffffffffffffffffffffff1690602001909291905050506107fd565b005b6102396004803603602081101561020d57600080fd5b81019080803573ffffffffffffffffffffffffffffffffffffffff169060200190929190505050610b32565b005b61027d6004803603602081101561025157600080fd5b81019080803573ffffffffffffffffffffffffffffffffffffffff169060200190929190505050610c62565b604051808273ffffffffffffffffffffffffffffffffffffffff1673ffffffffffffffffffffffffffffffffffffffff16815260200191505060405180910390f35b610321600480360360408110156102d557600080fd5b81019080803573ffffffffffffffffffffffffffffffffffffffff169060200190929190803573ffffffffffffffffffffffffffffffffffffffff169060200190929190505050610c95565b6040518082815260200191505060405180910390f35b6103796004803603602081101561034d57600080fd5b81019080803573ffffffffffffffffffffffffffffffffffffffff169060200190929190505050610cba565b005b610383610f80565b604051808273ffffffffffffffffffffffffffffffffffffffff1673ffffffffffffffffffffffffffffffffffffffff16815260200191505060405180910390f35b6103cd610fa6565b005b6103d76111bd565b005b61043b600480360360408110156103ef57600080fd5b81019080803573ffffffffffffffffffffffffffffffffffffffff169060200190929190803573ffffffffffffffffffffffffffffffffffffffff169060200190929190505050611348565b005b610445611494565b604051808273ffffffffffffffffffffffffffffffffffffffff1673ffffffffffffffffffffffffffffffffffffffff16815260200191505060405180910390f35b6104c96004803603602081101561049d57600080fd5b81019080803573ffffffffffffffffffffffffffffffffffffffff1690602001909291905050506114be565b6040518082815260200191505060405180910390f35b610521600480360360208110156104f557600080fd5b81019080803573ffffffffffffffffffffffffffffffffffffffff16906020019092919050505061157d565b6040518082815260200191505060405180910390f35b6105996004803603604081101561054d57600080fd5b81019080803573ffffffffffffffffffffffffffffffffffffffff169060200190929190803573ffffffffffffffffffffffffffffffffffffffff169060200190929190505050611595565b6040518082815260200191505060405180910390f35b6105f1600480360360208110156105c557600080fd5b81019080803573ffffffffffffffffffffffffffffffffffffffff169060200190929190505050611687565b604051808215151515815260200191505060405180910390f35b61064d6004803603602081101561062157600080fd5b81019080803573ffffffffffffffffffffffffffffffffffffffff169060200190929190505050611729565b6040518082815260200191505060405180910390f35b61066b61185d565b604051808273ffffffffffffffffffffffffffffffffffffffff1673ffffffffffffffffffffffffffffffffffffffff16815260200191505060405180910390f35b6106ef600480360360208110156106c357600080fd5b81019080803573ffffffffffffffffffffffffffffffffffffffff169060200190929190505050611875565b005b61071d6004803603602081101561070757600080fd5b8101908080359060200190929190505050611a85565b604051808273ffffffffffffffffffffffffffffffffffffffff1673ffffffffffffffffffffffffffffffffffffffff16815260200191505060405180910390f35b60078054600181600116156101000203166002900480601f0160208091040260200160405190810160405280929190818152602001828054600181600116156101000203166002900480156107f55780601f106107ca576101008083540402835291602001916107f5565b820191906000526020600020905b8154815290600101906020018083116107d857829003601f168201915b505050505081565b60008211610873576040517f08c379a00000000000000000000000000000000000000000000000000000000081526004018080602001828103825260128152602001807f616d6f756e742063616e6e6f742062652030000000000000000000000000000081525060200191505060405180910390fd5b61087c81611687565b15610b2e5761088b3382611ac1565b8073ffffffffffffffffffffffffffffffffffffffff166323b872dd3330856040518463ffffffff1660e01b8152600401808473ffffffffffffffffffffffffffffffffffffffff1673ffffffffffffffffffffffffffffffffffffffff1681526020018373ffffffffffffffffffffffffffffffffffffffff1673ffffffffffffffffffffffffffffffffffffffff1681526020018281526020019350505050602060405180830381600087803b15801561094657600080fd5b505af115801561095a573d6000803e3d6000fd5b505050506040513d602081101561097057600080fd5b81019080805190602001909291905050505081600960008373ffffffffffffffffffffffffffffffffffffffff1673ffffffffffffffffffffffffffffffffffffffff16815260200190815260200160002060003373ffffffffffffffffffffffffffffffffffffffff1673ffffffffffffffffffffffffffffffffffffffff1681526020019081526020016000205401600960008373ffffffffffffffffffffffffffffffffffffffff1673ffffffffffffffffffffffffffffffffffffffff16815260200190815260200160002060003373ffffffffffffffffffffffffffffffffffffffff1673ffffffffffffffffffffffffffffffffffffffff168152602001908152602001600020819055506001600a60003373ffffffffffffffffffffffffffffffffffffffff1673ffffffffffffffffffffffffffffffffffffffff168152602001908152602001600020541415610b2d576008339080600181540180825580915050600190039060005260206000200160009091909190916101000a81548173ffffffffffffffffffffffffffffffffffffffff021916908373ffffffffffffffffffffffffffffffffffffffff1602179055505b5b5050565b610b3a611bd0565b73ffffffffffffffffffffffffffffffffffffffff16600660009054906101000a900473ffffffffffffffffffffffffffffffffffffffff1673ffffffffffffffffffffffffffffffffffffffff1614610bfc576040517f08c379a00000000000000000000000000000000000000000000000000000000081526004018080602001828103825260208152602001807f4f776e61626c653a2063616c6c6572206973206e6f7420746865206f776e657281525060200191505060405180910390fd5b600c819080600181540180825580915050600190039060005260206000200160009091909190916101000a81548173ffffffffffffffffffffffffffffffffffffffff021916908373ffffffffffffffffffffffffffffffffffffffff16021790555050565b600b6020528060005260406000206000915054906101000a900473ffffffffffffffffffffffffffffffffffffffff1681565b6009602052816000526040600020602052806000526040600020600091509150505481565b6000600960008373ffffffffffffffffffffffffffffffffffffffff1673ffffffffffffffffffffffffffffffffffffffff16815260200190815260200160002060003373ffffffffffffffffffffffffffffffffffffffff1673ffffffffffffffffffffffffffffffffffffffff16815260200190815260200160002054905060008111610db1576040517f08c379a000000000000000000000000000000000000000000000000000000000815260040180806020018281038252601b8152602001807f7374616b696e672062616c616e63652063616e6e6f742062652030000000000081525060200191505060405180910390fd5b8173ffffffffffffffffffffffffffffffffffffffff1663a9059cbb33836040518363ffffffff1660e01b8152600401808373ffffffffffffffffffffffffffffffffffffffff1673ffffffffffffffffffffffffffffffffffffffff16815260200182815260200192505050602060405180830381600087803b158015610e3857600080fd5b505af1158015610e4c573d6000803e3d6000fd5b505050506040513d6020811015610e6257600080fd5b8101908080519060200190929190505050506000600960008473ffffffffffffffffffffffffffffffffffffffff1673ffffffffffffffffffffffffffffffffffffffff16815260200190815260200160002060003373ffffffffffffffffffffffffffffffffffffffff1673ffffffffffffffffffffffffffffffffffffffff168152602001908152602001600020819055506001600a60003373ffffffffffffffffffffffffffffffffffffffff1673ffffffffffffffffffffffffffffffffffffffff1681526020019081526020016000205403600a60003373ffffffffffffffffffffffffffffffffffffffff1673ffffffffffffffffffffffffffffffffffffffff168152602001908152602001600020819055505050565b600d60009054906101000a900473ffffffffffffffffffffffffffffffffffffffff1681565b610fae611bd0565b73ffffffffffffffffffffffffffffffffffffffff16600660009054906101000a900473ffffffffffffffffffffffffffffffffffffffff1673ffffffffffffffffffffffffffffffffffffffff1614611070576040517f08c379a00000000000000000000000000000000000000000000000000000000081526004018080602001828103825260208152602001807f4f776e61626c653a2063616c6c6572206973206e6f7420746865206f776e657281525060200191505060405180910390fd5b60008090505b6008805490508110156111ba5760006008828154811061109257fe5b9060005260206000200160009054906101000a900473ffffffffffffffffffffffffffffffffffffffff169050600d60009054906101000a900473ffffffffffffffffffffffffffffffffffffffff1673ffffffffffffffffffffffffffffffffffffffff1663a9059cbb82611107846114be565b6040518363ffffffff1660e01b8152600401808373ffffffffffffffffffffffffffffffffffffffff1673ffffffffffffffffffffffffffffffffffffffff16815260200182815260200192505050602060405180830381600087803b15801561117057600080fd5b505af1158015611184573d6000803e3d6000fd5b505050506040513d602081101561119a57600080fd5b810190808051906020019092919050505050508080600101915050611076565b50565b6111c5611bd0565b73ffffffffffffffffffffffffffffffffffffffff16600660009054906101000a900473ffffffffffffffffffffffffffffffffffffffff1673ffffffffffffffffffffffffffffffffffffffff1614611287576040517f08c379a00000000000000000000000000000000000000000000000000000000081526004018080602001828103825260208152602001807f4f776e61626c653a2063616c6c6572206973206e6f7420746865206f776e657281525060200191505060405180910390fd5b600073ffffffffffffffffffffffffffffffffffffffff16600660009054906101000a900473ffffffffffffffffffffffffffffffffffffffff1673ffffffffffffffffffffffffffffffffffffffff167f8be0079c531659141344cd1fd0a4f28419497f9722a3daafe3b4186f6b6457e060405160405180910390a36000600660006101000a81548173ffffffffffffffffffffffffffffffffffffffff021916908373ffffffffffffffffffffffffffffffffffffffff160217905550565b611350611bd0565b73ffffffffffffffffffffffffffffffffffffffff16600660009054906101000a900473ffffffffffffffffffffffffffffffffffffffff1673ffffffffffffffffffffffffffffffffffffffff1614611412576040517f08c379a00000000000000000000000000000000000000000000000000000000081526004018080602001828103825260208152602001807f4f776e61626c653a2063616c6c6572206973206e6f7420746865206f776e657281525060200191505060405180910390fd5b80600b60008473ffffffffffffffffffffffffffffffffffffffff1673ffffffffffffffffffffffffffffffffffffffff16815260200190815260200160002060006101000a81548173ffffffffffffffffffffffffffffffffffffffff021916908373ffffffffffffffffffffffffffffffffffffffff1602179055505050565b6000600660009054906101000a900473ffffffffffffffffffffffffffffffffffffffff16905090565b600080600090506000600a60008573ffffffffffffffffffffffffffffffffffffffff1673ffffffffffffffffffffffffffffffffffffffff1681526020019081526020016000205411156115745760008090505b600c805490508110156115725761156184600c838154811061153157fe5b9060005260206000200160009054906101000a900473ffffffffffffffffffffffffffffffffffffffff16611595565b820191508080600101915050611513565b505b80915050919050565b600a6020528060005260406000206000915090505481565b600080600a60008573ffffffffffffffffffffffffffffffffffffffff1673ffffffffffffffffffffffffffffffffffffffff16815260200190815260200160002054116115e65760009050611681565b670de0b6b3a76400006115f883611729565b600960008573ffffffffffffffffffffffffffffffffffffffff1673ffffffffffffffffffffffffffffffffffffffff16815260200190815260200160002060008673ffffffffffffffffffffffffffffffffffffffff1673ffffffffffffffffffffffffffffffffffffffff16815260200190815260200160002054028161167d57fe5b0490505b92915050565b600080600090505b600c8054905081101561171e578273ffffffffffffffffffffffffffffffffffffffff16600c82815481106116c057fe5b9060005260206000200160009054906101000a900473ffffffffffffffffffffffffffffffffffffffff1673ffffffffffffffffffffffffffffffffffffffff161415611711576001915050611724565b808060010191505061168f565b50600090505b919050565b600080600b60008473ffffffffffffffffffffffffffffffffffffffff1673ffffffffffffffffffffffffffffffffffffffff16815260200190815260200160002060009054906101000a900473ffffffffffffffffffffffffffffffffffffffff169050600081905060008060008060008573ffffffffffffffffffffffffffffffffffffffff1663feaf968c6040518163ffffffff1660e01b815260040160a06040518083038186803b1580156117e157600080fd5b505afa1580156117f5573d6000803e3d6000fd5b505050506040513d60a081101561180b57600080fd5b8101908080519060200190929190805190602001909291908051906020019092919080519060200190929190805190602001909291905050509450945094509450945083975050505050505050919050565b737a250d5630b4cf539739df2c5dacb4c659f2488d81565b61187d611bd0565b73ffffffffffffffffffffffffffffffffffffffff16600660009054906101000a900473ffffffffffffffffffffffffffffffffffffffff1673ffffffffffffffffffffffffffffffffffffffff161461193f576040517f08c379a00000000000000000000000000000000000000000000000000000000081526004018080602001828103825260208152602001807f4f776e61626c653a2063616c6c6572206973206e6f7420746865206f776e657281525060200191505060405180910390fd5b600073ffffffffffffffffffffffffffffffffffffffff168173ffffffffffffffffffffffffffffffffffffffff1614156119c5576040517f08c379a0000000000000000000000000000000000000000000000000000000008152600401808060200182810382526026815260200180611bd96026913960400191505060405180910390fd5b8073ffffffffffffffffffffffffffffffffffffffff16600660009054906101000a900473ffffffffffffffffffffffffffffffffffffffff1673ffffffffffffffffffffffffffffffffffffffff167f8be0079c531659141344cd1fd0a4f28419497f9722a3daafe3b4186f6b6457e060405160405180910390a380600660006101000a81548173ffffffffffffffffffffffffffffffffffffffff021916908373ffffffffffffffffffffffffffffffffffffffff16021790555050565b60088181548110611a9257fe5b906000526020600020016000915054906101000a900473ffffffffffffffffffffffffffffffffffffffff1681565b6000600960008373ffffffffffffffffffffffffffffffffffffffff1673ffffffffffffffffffffffffffffffffffffffff16815260200190815260200160002060008473ffffffffffffffffffffffffffffffffffffffff1673ffffffffffffffffffffffffffffffffffffffff1681526020019081526020016000205411611bcc576001600a60008473ffffffffffffffffffffffffffffffffffffffff1673ffffffffffffffffffffffffffffffffffffffff1681526020019081526020016000205401600a60008473ffffffffffffffffffffffffffffffffffffffff1673ffffffffffffffffffffffffffffffffffffffff168152602001908152602001600020819055505b5050565b60003390509056fe4f776e61626c653a206e6577206f776e657220697320746865207a65726f2061646472657373a2646970667358221220351d85eefdd98e7e5e92b683c9f31f8bc08e6ab860cf6541087207d1d897f23364736f6c63430006020033",
  "source": "pragma solidity ^0.6.0;\r\n\r\nimport \"@chainlink/contracts/src/v0.6/interfaces/AggregatorV3Interface.sol\";\r\nimport \"@chainlink/contracts/src/v0.6/ChainlinkClient.sol\";\r\nimport \"@openzeppelin/contracts/token/ERC20/IERC20.sol\";\r\nimport \"@openzeppelin/contracts/access/Ownable.sol\";\r\n\r\ncontract TokenFarm is ChainlinkClient, Ownable {\r\n    string public name = \"Dapp Token Farm\";\r\n\r\n    address[] public stakers;\r\n    // token > address\r\n    mapping(address => mapping(address => uint256)) public stakingBalance;\r\n    mapping(address => uint256) public uniqueTokensStaked;\r\n    mapping(address => address) public tokenPriceFeedMapping;\r\n    address[] allowedTokens;\r\n\r\n    address public dappToken;\r\n    // at Rinkeby testnet\r\n    address public constant uni = address(0x7a250d5630B4cF539739dF2C5dAcb4c659F2488D);\r\n    // address public constant weth = address(0x2fcc4dba284dcf665091718e4d0dab53a416dfe7); // used for dapp <> weth <> yfi route\r\n\r\n    constructor(address _dappToken) public {\r\n        dappToken = _dappToken;\r\n    }\r\n\r\n    function addAllowedTokens(address token) public onlyOwner {\r\n        allowedTokens.push(token);\r\n    }\r\n\r\n    function setPriceFeedContract(address token, address priceFeed)\r\n        public\r\n        onlyOwner\r\n    {\r\n        tokenPriceFeedMapping[token] = priceFeed;\r\n    }\r\n\r\n    function stakeTokens(uint256 _amount, address token) public {\r\n        // Require amount greater than 0\r\n        require(_amount > 0, \"amount cannot be 0\");\r\n        if (tokenIsAllowed(token)) {\r\n            updateUniqueTokensStaked(msg.sender, token);\r\n            IERC20(token).transferFrom(msg.sender, address(this), _amount);\r\n            stakingBalance[token][msg.sender] =\r\n                stakingBalance[token][msg.sender] +\r\n                _amount;\r\n            if (uniqueTokensStaked[msg.sender] == 1) {\r\n                stakers.push(msg.sender);\r\n            }\r\n        }\r\n    }\r\n\r\n    // Unstaking Tokens (Withdraw)\r\n    function unstakeTokens(address token) public {\r\n        // Fetch staking balance\r\n        uint256 balance = stakingBalance[token][msg.sender];\r\n        require(balance > 0, \"staking balance cannot be 0\");\r\n        IERC20(token).transfer(msg.sender, balance);\r\n        stakingBalance[token][msg.sender] = 0;\r\n        uniqueTokensStaked[msg.sender] = uniqueTokensStaked[msg.sender] - 1;\r\n    }\r\n\r\n    function getUserTotalValue(address user) public view returns (uint256) {\r\n        uint256 totalValue = 0;\r\n        if (uniqueTokensStaked[user] > 0) {\r\n            for (\r\n                uint256 allowedTokensIndex = 0;\r\n                allowedTokensIndex < allowedTokens.length;\r\n                allowedTokensIndex++\r\n            ) {\r\n                totalValue =\r\n                    totalValue +\r\n                    getUserStakingBalanceEthValue(\r\n                        user,\r\n                        allowedTokens[allowedTokensIndex]\r\n                    );\r\n            }\r\n        }\r\n        return totalValue;\r\n    }\r\n\r\n    function tokenIsAllowed(address token) public returns (bool) {\r\n        for (\r\n            uint256 allowedTokensIndex = 0;\r\n            allowedTokensIndex < allowedTokens.length;\r\n            allowedTokensIndex++\r\n        ) {\r\n            if (allowedTokens[allowedTokensIndex] == token) {\r\n                return true;\r\n            }\r\n        }\r\n        return false;\r\n    }\r\n\r\n    function updateUniqueTokensStaked(address user, address token) internal {\r\n        if (stakingBalance[token][user] <= 0) {\r\n            uniqueTokensStaked[user] = uniqueTokensStaked[user] + 1;\r\n        }\r\n    }\r\n\r\n    function getUserStakingBalanceEthValue(address user, address token)\r\n        public\r\n        view\r\n        returns (uint256)\r\n    {\r\n        if (uniqueTokensStaked[user] <= 0) {\r\n            return 0;\r\n        }\r\n        return\r\n            (stakingBalance[token][user] * getTokenEthPrice(token)) / (10**18);\r\n    }\r\n\r\n    // Issuing Tokens\r\n    function issueTokens() public onlyOwner {\r\n        // Issue tokens to all stakers\r\n        for (\r\n            uint256 stakersIndex = 0;\r\n            stakersIndex < stakers.length;\r\n            stakersIndex++\r\n        ) {\r\n            address recipient = stakers[stakersIndex];\r\n            IERC20(dappToken).transfer(recipient, getUserTotalValue(recipient));\r\n        }\r\n    }\r\n\r\n    function getTokenEthPrice(address token) public view returns (uint256) {\r\n        address priceFeedAddress = tokenPriceFeedMapping[token];\r\n        AggregatorV3Interface priceFeed = AggregatorV3Interface(\r\n            priceFeedAddress\r\n        );\r\n        (\r\n            uint80 roundID,\r\n            int256 price,\r\n            uint256 startedAt,\r\n            uint256 timeStamp,\r\n            uint80 answeredInRound\r\n        ) = priceFeed.latestRoundData();\r\n        return uint256(price);\r\n    }\r\n\r\n    // function swapDappTokenForDAI() public {\r\n    //     uint256 _balance = IERC20(dappToken).balanceOf(address(this));\r\n    //     if (_balance > 0) {\r\n    //         IERC20(dappToken).safeApprove(uni, 0);\r\n    //         IERC20(dappToken).safeApprove(uni, _balance);\r\n\r\n    //         address[] memory path = new address[](3);\r\n    //         path[0] = cream;\r\n    //         path[1] = weth;\r\n    //         path[2] = want;\r\n\r\n    //         Uni(uni).swapExactTokensForTokens(_cream, uint256(0), path, address(this), now.add(1800));\r\n    //     }\r\n    // }\r\n}\r\n\r\n//18446744073709555618\r\n",
  "sourcePath": "C:/Users/Fabio Costa/GitHub_repos/fabio770/WalletRebalance/contracts/TokenFarm.sol",
  "compiler": {
    "name": "solc",
    "version": "0.6.2+commit.bacdbe57.Emscripten.clang"
  },
  "schemaVersion": "3.3.0",
  "updatedAt": "2020-10-12T21:24:10.122Z",
  "networkType": "ethereum",
  "devdoc": {
    "methods": {
      "owner()": {
        "details": "Returns the address of the current owner."
      },
      "renounceOwnership()": {
        "details": "Leaves the contract without owner. It will not be possible to call `onlyOwner` functions anymore. Can only be called by the current owner.     * NOTE: Renouncing ownership will leave the contract without an owner, thereby removing any functionality that is only available to the owner."
      },
      "transferOwnership(address)": {
        "details": "Transfers ownership of the contract to a new account (`newOwner`). Can only be called by the current owner."
      }
    }
  },
  "userdoc": {
    "methods": {}
  }
}